:100000000C94F7020C941F030C941F030C941F0311
:100010000C941F030C941F030C941F030C941F03D8
:100020000C941F030C941F030C941F030C941F03C8
:100030000C941F030C941F030C941F030C941F03B8
:100040000C947C030C941F030C941F030C941F034B
:100050000C941F030C941F030C941F030C941F0398
:100060000C94C6030C941F03DB40A4A62EAF200003
:10007000A1C8D300408DAED580A82200FF2100008A
:10008000000000240027002A0000000000250028AE
:10009000002B00000000080002010000030407001C
:1000A0000000000000000000000000003E5B4F5B0D
:1000B0003E3E6B4F6B3E1C3E7C3E1C183C7E3C180B
:1000C0001C577D571C1C5E7F5E1C00183C1800FFEF
:1000D000E7C3E7FF0018241800FFE7DBE7FF30481D
:1000E0003A060E2629792926407F050507407F0517
:1000F000253F5A3CE73C5A7F3E1C1C08081C1C3E0E
:100100007F14227F22145F5F005F5F06097F017FFB
:10011000006689956A606060606094A2FFA294089E
:10012000047E040810207E201008082A1C08081CE1
:100130002A08081E101010100C1E0C1E0C30383E21
:100140003830060E3E0E06000000000000005F0082
:10015000000007000700147F147F14242A7F2A124E
:100160002313086462364956205000080703000034
:100170001C2241000041221C002A1C7F1C2A080866
:100180003E08080080703000080808080800006079
:10019000600020100804023E5149453E00427F4065
:1001A0000072494949462141494D331814127F10C4
:1001B00027454545393C4A4949314121110907360E
:1001C00049494936464949291E00001400000040AB
:1001D00034000000081422411414141414004122A5
:1001E000140802015909063E415D594E7C12111254
:1001F0007C7F494949363E414141227F4141413E50
:100200007F494949417F090909013E414151737FB5
:100210000808087F00417F41002040413F017F08DE
:100220001422417F404040407F021C027F7F04082F
:10023000107F3E4141413E7F090909063E4151215F
:100240005E7F09192946264949493203017F010386
:100250003F4040403F1F2040201F3F4038403F6309
:100260001408146303047804036159494D43007F63
:100270004141410204081020004141417F04020134
:1002800002044040404040000307080020545478D6
:10029000407F284444383844444428384444287F24
:1002A000385454541800087E090218A4A49C787F7E
:1002B0000804047800447D40002040403D007F1049
:1002C00028440000417F40007C047804787C0804C6
:1002D00004783844444438FC18242418182424187A
:1002E000FC7C08040408485454542404043F442467
:1002F0003C4040207C1C2040201C3C4030403C4482
:10030000281028444C9090907C4464544C4400083D
:10031000364100000077000000413608000201026B
:1003200004023C2623263C1EA1A161123A40402033
:100330007A385454555921555579412254547842AC
:10034000215554784020545579400C1E5272123970
:100350005555555939545454593955545458000029
:10036000457C410002457D420001457C407D1211E3
:10037000127DF0282528F07C545545002054547CEB
:10038000547C0A097F4932494949323A4444443A43
:10039000324A4848303A4141217A3A424020780076
:1003A0009DA0A07D3D4242423D3D4040403D3C2419
:1003B000FF2424487E4943662B2FFC2F2BFF09295D
:1003C000F620C0887E090320545479410000447D02
:1003D000413048484A32384040227A007A0A0A724C
:1003E0007D0D19317D2629292F28262929292630F6
:1003F000484D4020380808080808080808382F1019
:10040000C8ACBA2F102834FA00007B000008142A68
:10041000142222142A14085500550055AA55AA552D
:10042000AAFF55FF55FF000000FF00101010FF004D
:10043000141414FF001010FF00FF1010F010F0143F
:100440001414FC001414F700FF0000FF00FF141444
:10045000F404FC141417101F10101F101F14141490
:100460001F00101010F0000000001F101010101FCF
:1004700010101010F010000000FF101010101010DD
:10048000101010FF10000000FF140000FF00FF001C
:10049000001F10170000FC04F41414171017141494
:1004A000F404F40000FF00F714141414141414F7E7
:1004B00000F7141414171410101F101F141414F440
:1004C000141010F010F000001F101F0000001F1487
:1004D000000000FC140000F010F01010FF10FF14DA
:1004E0001414FF141010101F00000000F010FFFF84
:1004F000FFFFFFF0F0F0F0F0FFFFFF000000000052
:10050000FFFF0F0F0F0F0F3844443844FC4A4A4A8C
:10051000347E02020606027E027E02635549416372
:100520003844443C04407E201E2006027E0202998C
:10053000A5E7A5991C2A492A1C4C7201724C304A25
:100540004D4D303048784830BC625A463D3E4949AE
:1005500049007E0101017E2A2A2A2A2A44445F4456
:100560004440514A444040444A51400000FF010386
:10057000E080FF000008086B6B0836123624360650
:100580000F090F060000181800000010100030407E
:10059000FF0101001F01011E00191D1712003C3C44
:1005A0003C3C0000000000000103070F1F3F7F00DC
:1005B00080C0E0F0F8FCFE01020408102040800139
:1005C000020408102001020408102000000000238B
:1005D00000260029000404040404040404020202A6
:1005E00002020203030303030300C217B31711241B
:1005F0001FBECFEFD8E0DEBFCDBF11E0A0E0B1E07D
:10060000ECEDF8E302C005900D92AE34B107D9F7D6
:1006100022E0AEE4B1E001C01D92A839B207E1F7D3
:1006200012E0C6EFD2E004C02197FE010E949D199E
:10063000C53FD107C9F70E945E130C94611C0C944E
:100640000000CF92DF92EF92FF920F931F93CF9310
:10065000DF936C017A018B01C0E0D0E0CE15DF059D
:1006600081F0D8016D918D01D601ED91FC91019041
:10067000F081E02DC6010995892B11F02196EECF6E
:100680007E01C701DF91CF911F910F91FF90EF90F5
:10069000DF90CF90089585ED8093BC008091BC00E1
:1006A00084FDFCCF1092E60108950E94551C3FB7CF
:1006B000F89480919C0190919D01A0919E01B09130
:1006C0009F0126B5A89B05C02F3F19F00196A11DDB
:1006D000B11D3FBFBA2FA92F982F8827820F911DD8
:1006E000A11DB11DBC01CD0142E0660F771F881F1F
:1006F000991F4A95D1F708951F920F920FB60F9246
:1007000011242F933F938F939F93AF93BF93809127
:100710000B0290910C02A0910D02B0910E0230914B
:100720009B0123E0230F2D3720F40196A11DB11D5D
:1007300005C026E8230F0296A11DB11D20939B0141
:1007400080930B0290930C02A0930D02B0930E02C3
:1007500080919C0190919D01A0919E01B0919F017B
:100760000196A11DB11D80939C0190939D01A093C2
:100770009E01B0939F01BF91AF919F918F913F9147
:100780002F910F900FBE0F901F9018951F920F92F0
:100790000FB60F9211242F933F934F935F936F9354
:1007A0007F938F939F93AF93BF93EF93FF9380912A
:1007B000B900887F803609F49CC068F5883209F456
:1007C0005BC090F4803109F454C038F4882309F4F4
:1007D000F6C0883009F44DC0F6C0883109F44CC029
:1007E000803209F45DC0EFC0803409F468C048F479
:1007F000803309F455C0883309F0E5C08093E401E3
:10080000D8C0803509F44FC0883509F45DC08834FC
:1008100009F0D9C0D6C0883909F4C7C0A8F4883710
:1008200009F467C038F4883609F463C0803709F4E6
:1008300060C0C9C0883809F4B8C0803909F45FC005
:10084000803809F0C0C05BC0803B09F486C038F432
:10085000803A09F466C0883A09F47FC0B4C0803C8D
:1008600009F4A7C0883C09F4A4C0883B09F48AC0F5
:10087000AAC08091C10110C09091E3018091E20172
:10088000981770F5E091E30181E08E0F8093E3010A
:10089000F0E0EE53FE4F80818093BB0085EC86C074
:1008A0008093E4018EC0E091E30181E08E0F80939C
:1008B000E3018091BB00F0E0EE53FE4F8083909106
:1008C000E3018091E2016EC0E091E30181E08E0FCF
:1008D0008093E3018091BB00F0E0EE53FE4F8083F4
:1008E0008091E50181116DC081E08093C00184EAAF
:1008F00061C083E08093E60110929201CFCF809196
:100900009201803208F051C0E091920181E08E0F97
:10091000809392018091BB00F0E0EE58FE4F8083FF
:10092000BDCF85EC8093BC001092E60180919201CE
:10093000803230F4E0919201F0E0EE58FE4F1082E8
:100940006091920170E0E0919301F091940182E74F
:1009500091E009951092920136C084E08093E601FF
:100960001092710110927001E0919501F091960141
:10097000099580917001811105C081E0809370011B
:1009800010925001E091710181E08E0F809371010E
:10099000F0E0E05BFE4F80818093BB00909171019D
:1009A00080917001981708F479CF85E88093BC0096
:1009B0000AC085EC8093BC001092E60104C010923E
:1009C000E4010E944B03FF91EF91BF91AF919F9182
:1009D0008F917F916F915F914F913F912F910F90E8
:1009E0000FBE0F901F90189540917001262F30E098
:1009F000240F311D21323105DCF42091E601243031
:100A0000C9F4FC0180E090E0861758F43091700141
:100A10002191DC01A05BBE4FA30FB11D2C93019669
:100A2000F3CF80917001680F6093700180E00895AA
:100A300081E0089582E00895089508950895E09171
:100A40004F0180914E01E81730F4F0E0E056FE4F80
:100A5000808190E008958FEF9FEF089590914F016E
:100A600080914E01981750F4E92FF0E0E056FE4FC8
:100A7000208130E09F5F90934F0102C02FEF3FEF46
:100A8000C901089580914E0190E020914F01821B91
:100A900091090895CF93DF93EC016A817B81072E42
:100AA000000C880B990B0E94171A9B01AC016C85F6
:100AB0007D858E859F850E94101A881F8827881F34
:100AC000DF91CF9108950895FC016370668B848156
:100AD000958126813781613039F0633029F0918723
:100AE000808733872287089531872087938782877D
:100AF00008956F927F928F929F92AF92BF92CF9202
:100B0000DF92EF92FF920F931F93CF93DF93EC014D
:100B10004B015A0169013801E881F9810284F385AA
:100B2000E02D0995E881F9810288F389E02D87019C
:100B30009601A501B401CE010995A501460D571DE9
:100B400041505109E881F9810288F389E02D96012D
:100B5000B401CE010995E881F9810088F189E02D81
:100B60009301A501B401CE010995C80CD91CB601A9
:100B700061507109E881F9810088F189E02D9301C4
:100B8000A501CE010995E881F9810688F789E02D54
:100B9000CE01DF91CF911F910F91FF90EF90DF90E9
:100BA000CF90BF90AF909F908F907F906F9009945F
:100BB0008F929F92AF92BF92CF92DF92EF92FF926D
:100BC0000F931F93CF93DF934C016B015A01E901FF
:100BD000DC01ED91FC916217730781F4041715078E
:100BE00024F48B2D5801042F182F0A191B09980182
:100BF0002F5F3F4F048CF58DE02D12C04017510739
:100C000009F52617370724F48D2D6901C62FD82F33
:100C10009E012C193D092F5F3F4F068CF78DE02D6B
:100C20008701A501B601C4010995DF91CF911F91FC
:100C30000F91FF90EF90DF90CF90BF90AF909F907B
:100C40008F9008950284F385E02D0995D401ED91EC
:100C5000FC910488F589E02D9E01A501B601C4012F
:100C60000995D401ED91FC910688F789E02DC40126
:100C7000DF91CF911F910F91FF90EF90DF90CF9078
:100C8000BF90AF909F908F900994EF92FF920F9337
:100C90001F93DC011A960D911C911B9718962D91AC
:100CA0003C911997ED91FC9100A0F1A1E02D7B0101
:100CB00040E050E060E070E009951F910F91FF90D7
:100CC000EF9008954F925F926F927F928F929F92D2
:100CD000AF92BF92CF92DF92EF92FF920F931F934A
:100CE000CF93DF936C012B015A0139014801DC01DC
:100CF000ED91FC910284F385E02D0995E201640CED
:100D0000751CD601ED91FC91C615D7055CF40088E1
:100D1000F189E02D87019401A501BE01C601099565
:100D20002196EFCF0688F789E02DC601DF91CF919C
:100D30001F910F91FF90EF90DF90CF90BF90AF90F9
:100D40009F908F907F906F905F904F9009948F92BB
:100D50009F92AF92BF92CF92DF92EF92FF920F934A
:100D60001F93CF93DF93EC015B014A016901E88196
:100D7000F9810284F385E02D099595012C0D3D1D27
:100D800021503109E881F9810488F589E02D780145
:100D90008401A401B501CE010995E881F981068895
:100DA000F789E02DCE01DF91CF911F910F91FF9038
:100DB000EF90DF90CF90BF90AF909F908F9009946D
:100DC0008F929F92AF92BF92CF92DF92EF92FF925B
:100DD0000F931F93CF93DF93EC015B014A016901ED
:100DE0007801E881F9810284F385E02D0995C80C2A
:100DF000D91C860101501109E881F9810488F5891F
:100E0000E02D9501A401B501CE010995E881F98194
:100E10000688F789E02DCE01DF91CF911F910F91C8
:100E2000FF90EF90DF90CF90BF90AF909F908F900A
:100E30000994EF92FF920F931F93DC01ED91FC91C7
:100E400000A0F1A1E02D09951F910F91FF90EF9067
:100E500008950F931F93DC01ED91FC91068CF78DA3
:100E6000E02D09951F910F9108950F931F93DC01B9
:100E7000ED91FC91048CF58DE02D09951F910F915A
:100E80000895DC01ED91FC910084F185E02D099439
:100E90002F923F924F925F926F927F928F929F928A
:100EA000AF92BF92CF92DF92EF92FF920F931F9378
:100EB000CF93DF9300D000D000D0CDB7DEB72C01A8
:100EC0007E836D836A015901C801FC82EB8248016F
:100ED000841A950A97FE03C0919481949108350174
:100EE0002D813E81621A730A77FE03C0719461946A
:100EF0007108681479045CF43A2D2B2D5C01832F62
:100F0000922F3D812E81DE82CD82C32ED22EAD81E5
:100F1000BE81AA16BB065CF43C2D2D2D6C01832FDF
:100F2000922F3D812E81BE82AD82A32EB22E8501ED
:100F30002D813E81021B130B1C012C183D0837FE2E
:100F400003C0319421943108780117FF03C03FEFAB
:100F5000E31AF30AF594E794C816D9062CF08FEF3C
:100F60009FEF9A83898304C0A1E0B0E0BA83A9838C
:100F70002D813E81A216B30624F1D201ED91FC91A0
:100F80000484F585E02D2B813C816814790424F4D8
:100F90004D815E81B60103C0A6016D817E81C201D3
:100FA0000995E218F308F7FE06C029813A81C20EBE
:100FB000D31EE00EF11E8D819E8101969E838D834E
:100FC000D7CF26960FB6F894DEBF0FBECDBFDF9108
:100FD000CF911F910F91FF90EF90DF90CF90BF9036
:100FE000AF909F908F907F906F905F904F903F90C9
:100FF0002F900895FC0177FDB9C080859185681711
:1010000079070CF0B3C057FDB1C0828593854817AE
:1010100059070CF008958689823079F4848195818E
:10102000DC01A61BB70BBD01615071098681978158
:10103000DC01A41BB50BAD010EC0833009F084C0E8
:1010400064277527CA01862797276827792746814D
:101050005781481B590B415051092130310531F05E
:1010600048F12230310509F44AC00895CA0157FDFC
:1010700007969C01A3E035952795AA95E1F7A481F1
:10108000B5812A9FC0012B9F900D3A9F900D11248E
:10109000680F791F058CF68DE02DE60FF71F47705E
:1010A000552781E090E001C0880F4A95EAF79081CA
:1010B000892B48C0CA0157FD07969C0193E03595DE
:1010C00027959A95E1F7A481B5812A9FC0012B9FAE
:1010D000900D3A9F900D1124680F791F058CF68DA5
:1010E000E02DE60FF71F4770552781E090E001C023
:1010F000880F4A95EAF780959081892323C0CA0119
:1011000057FD07969C0183E0359527958A95E1F771
:10111000A481B5812A9FC0012B9F900D3A9F900D0D
:101120001124680F791F058CF68DE02DE60FF71F4F
:101130004770552781E090E001C0880F4A95EAF793
:101140009081892780830895813009F086CF6427B4
:101150007527462757276427752784819581DC01E9
:10116000A61BB70BBD016150710977CF0895089593
:1011700080E090E00895CF92DF92EF92FF920F937C
:101180001F93CF93DF937C01CB018A012091E7016C
:10119000222389F0EB016B01C40ED51ECC15DD05B1
:1011A00069F06991D701ED91FC910190F081E02DFA
:1011B000C7010995F3CF642F0E94F404C801DF91A1
:1011C000CF911F910F91FF90EF90DF90CF900895F6
:1011D000CF93DF931F92CDB7DEB769832091E701EC
:1011E0002223D1F020910A02203240F021E030E0A9
:1011F000FC013383228380E090E015C08091E801F8
:10120000E82FF0E0E751FE4F998190838F5F809344
:10121000E80180930A0205C061E0CE0101960E94B8
:10122000F40481E090E00F90DF91CF9108954F9208
:101230005F926F927F928F929F92AF92BF92CF9266
:10124000DF92EF92FF920F931F93CF93DF93EC0106
:101250000E9457036B017C018C819D81AE81BF810F
:10126000C816D906EA06FB0620F4CC82DD82EE829F
:10127000FF828C819D81AE81BF81B701A601481B91
:10128000590B6A0B7B0B8C899D89A0E0B0E0841719
:101290009507A607B707C0F588850E94FD108C0149
:1012A0009B878A8788889988AA88BB882C853D85F2
:1012B0004E855F85C501B4010E94C71A2B013C0110
:1012C000A501940160E070E080E89FE30E94A3190B
:1012D0004B015C01B801110F880B990B0E94171A82
:1012E0009B01AC01C501B4010E94C71A9B01AC016E
:1012F000C301B2010E94A4196C877D878E879F87E6
:10130000CC82DD82EE82FF82DF91CF911F910F911F
:10131000FF90EF90DF90CF90BF90AF909F908F9015
:101320007F906F905F904F900895CF93DF93EC0183
:1013300088850E94FD109B878A87BC01990F880BC6
:10134000990B0E94171A6C877D878E879F87DF9184
:10135000CF9108958F929F92AF92CF92EF92FF928A
:101360000F931F93CF93DF93EC01262F898D9A8DD6
:10137000009709F042C06A3059F41D861C862D89F9
:101380008E859F8538E0239F800D911D112443C0D9
:101390006D3009F4AAC08F898823C9F03C898C85F7
:1013A0009D8546E0349F800D911D11244885598507
:1013B0004817590764F41D861C863D898E859F85D4
:1013C00048E0349F800D911D11249F878E87EA8805
:1013D000FB88088919894E855F856C857D85AD8878
:1013E000CC88CE010E94400E2C898C859D8536E0EC
:1013F000239F800D911D11243EC06A3079F41D8613
:101400001C862D89FC013896E4918E859F852E9F40
:10141000800D911D11249F878E8767C06D3009F460
:1014200064C0FC0134963491631708F45EC03296B0
:10143000E491E61708F459C0462F431B342FFC01F2
:1014400032968590949047E0349F800C911C112433
:10145000F401329634913196E491332311F0E11185
:101460000DC0F4013496E4912C898C859D85E29F12
:10147000800D911D11249D878C8737C0F40135960E
:1014800044915F89552319F15C89E32FF0E0E40F63
:10149000F11D47FDFA955E9FB0015F9F700D11240D
:1014A0004C855D85460F571F6885798564177507DC
:1014B00074F41D861C863D89FC013896E4918E8566
:1014C0009F853E9F800D911D11249F878E87EA88FE
:1014D000FB88088919894E855F856C857D85AD8877
:1014E000CC88CE010E94400EBCCF81E090E0DF911D
:1014F000CF911F910F91FF90EF90CF90AF909F9061
:101500008F9008950F931F93CF93DF93DC0156962E
:10151000EC915697E23071F0E330E9F0E13079F583
:10152000FB0114960D90BC91A02DA41BB50BA21B22
:10153000B30B18C0EC01EC81FD81E61BF70BBF017A
:1015400061507109EE81FF81DF01A41BB50BAD0174
:10155000421B530B14C0DA01EC01EE81FF81E61B44
:10156000F70B3197F7FD0DC0EC014E815F81E41759
:10157000F5073CF4AF01BD010E94240D02C00E949A
:101580008B0DDF91CF911F910F9108950F931F93B2
:10159000DC015696EC915697E23061F0E33009F1A8
:1015A000E13081F51496ED91FC911597E41BF50B54
:1015B000319723C0DC011496ED91FC911597DF0162
:1015C000A61BB70BBD01DC011696ED91FC91179798
:1015D000DF01A41BB50BAD0141505109621B730B18
:1015E00011C0FA01DC0116964D915C911797DA0152
:1015F000A61BB70BBD01621B730BAB01BF010E94A1
:101600008B0D0CC057FD0AC0DC011696ED91FC91C4
:1016100017974E175F0714F40E94240D1F910F9126
:1016200008951F93CF93DF93FC01838D948D0097D2
:1016300029F1162FEF01278D31E03093E701209338
:1016400009021092E80110920A02DC01ED91FC916E
:101650000190F081E02D60E009958B8D9C8DDC017F
:10166000ED91FC910190F081E02D612F09958B8D1A
:101670009C8DDF91CF911F910C940213A7A1B0A56F
:101680009C9185A5809589238C9328E030E090E893
:10169000A3A1B4A183A5462F492319F04C91842B13
:1016A00003C04C91809584238C93A5A1B6A14C9145
:1016B00084A5842B8C93A5A1B6A14C9184A580957B
:1016C00084238C9396952150310911F7DF91CF91A6
:1016D0001F9108951F93CF93DF93EC01162F8B8DED
:1016E0009C8D892BB1F02FA538A949A95AA960E092
:1016F00074E284EF90E00E947B19DA01C9014097FF
:10170000A109B109B695A795979587958093B800DB
:1017100007C0E9A5FAA590818EA5809589238083CD
:10172000111102C066EA01C067EACE010E94110BE6
:101730008B8D9C8D892BB1F02BA93CA94DA95EA95D
:1017400060E074E284EF90E00E947B19DA01C90145
:101750004097A109B109B695A7959795879580936C
:10176000B80006C0E9A5FAA590818EA5892B8083D3
:10177000DF91CF911F9108958F929F92AF92BF9268
:101780000F931F93CF93DF93CDB7DEB7A1970FB61B
:10179000F894DEBF0FBECDBF19A2423008F44AE074
:1017A0008E010F5D1F4F842E912CA12CB12CA50111
:1017B00094010E947B19E62FB901CA010150110959
:1017C000EA3014F4E05D01C0E95CD801EC93232B0E
:1017D000242B252B61F70115110571F0F8010190FB
:1017E0000020E9F73197AF01401B510BB80180E5AC
:1017F00092E00E94210302C080E090E0A1960FB623
:10180000F894DEBF0FBECDBFDF91CF911F910F9136
:10181000BF90AF909F908F900895FF920F931F936A
:10182000CF93DF93F82ED92FC62F80916B02909122
:101830006C02009709F452C020916F0231E030939E
:10184000E701209309021092E80110920A02DC01DC
:10185000ED91FC910190F081E02D60E009950F2D54
:101860001D2FD1E0FF24F39480916B0290916C02C4
:10187000CC2369F1D032C8F00E94021380916F022C
:10188000F092E701809309021092E80110920A0297
:1018900080916B0290916C02DC01ED91FC910190C2
:1018A000F081E02D60E00995D1E080916B0290918C
:1018B0006C02F8016491DC01ED91FC910190F081E2
:1018C000E02D0995DF5FC1500F5F1F4FCDCFDF9136
:1018D000CF911F910F91FF900C940213E09177022A
:1018E000F0917802908180917D0280958923808398
:1018F000EF2DFD2FC15068F1549128E030E090E8C1
:10190000A0917302B091740280917B02452F49230C
:1019100019F04C91842B03C04C91809584238C93B7
:10192000A0917502B09176024C9180917C02842B3B
:101930008C93A0917502B09176024C9180917C02BB
:10194000809584238C93969521503109C9F6319660
:10195000D1CFDF91CF911F910F91FF900895CF923A
:10196000DF92EF92FF92CF93DF936C01990FEE0815
:10197000FF08F7FE19C06DE280E592E00E94AA0917
:10198000EC0166277727CB016C197D098E099F0929
:101990004AE00E94BC0B8C0F9D1FDF91CF91FF90FE
:1019A000EF90DF90CF9008954AE0C701B601DF9134
:1019B000CF91FF90EF90DF90CF900C94BC0BCF9223
:1019C000DF92EF92FF920F931F93FC01AC014E5FE9
:1019D0005F4F8FEF9FEFDC010191002E000C110B88
:1019E000220B330B80279127A227B32728E030E072
:1019F0006C017D01F694E794D794C7948170992780
:101A0000AA27BB27B095A095909581959F4FAF4F82
:101A1000BF4F80729378A87BBD7E8C259D25AE2517
:101A2000BF252150310921F7E417F507A9F6BC01BC
:101A3000CD0160957095809590951F910F91FF90C5
:101A4000EF90DF90CF9008950F931F93CF93DF9384
:101A500077FF04C0260F371F60E070E0DC011496AA
:101A6000CD91DC911597FB01E20FF31FCE17DF0735
:101A70001CF49E01261B370B121613060CF046C0F1
:101A8000FA0157FD3796DF01E3E0B595A795EA9592
:101A9000E1F7AC9FF001AD9FF00DBC9FF00D11245C
:101AA0006E0F7F1FDC015D96ED91FC915E97E60F56
:101AB000F71F4770552781E090E001C0880F4A95D5
:101AC000EAF7482F0130110539F078F0023011059E
:101AD000E9F42E0F3F1F13C02E0F3F1FE217F3072D
:101AE000A9F08081842B8193F9CF80952E0F3F1F21
:101AF000E217F30759F0908198239193F9CFE217F9
:101B0000F30721F0808184278193F9CFDF91CF9172
:101B10001F910F910895EF92FF920F931F93CF9310
:101B2000DF93EC0177FDA5C0EC80FD806E157F058D
:101B30000CF09FC057FF04C0240F351F40E050E059
:101B40008E819F81FA01E20FF31F8E179F071CF40D
:101B50009C01241B350B121613060CF08AC0922F21
:101B6000842F8695869586958E9DD0018F9DB00D8C
:101B700011246A0F7B1FAD8DBE8DA60FB71F477056
:101B8000B1F188E0841B482F682F70E0FB01E1551C
:101B9000FA4FE491281798F4621B71092FEF30E097
:101BA00002C0359527956A95E2F7E22301301105C9
:101BB00049F078F00230110509F05BC00EC0013029
:101BC000110519F48C91E82B0AC00130110508F0B9
:101BD00049C0E0958C91E82302C08C91E827EC93F2
:101BE000941708F446C02C813D81A20FB31FE92F42
:101BF000E41BE830F8F00230110561F48E2F9C915F
:101C000090959C932C813D81A20FB31F8850883002
:101C1000B0F70FC081E00115110509F480E081954E
:101C20009E2F8C932C813D81A20FB31F985098302A
:101C3000C0F7E770EE23E9F0F0E0E955FA4FE491E0
:101C40000130110539F048F00230110591F48C9102
:101C5000E82706C08C91E82B03C0E0958C91E8231F
:101C6000EC9307C00230110509F4B7CFAE0DBF1DCC
:101C7000BECFDF91CF911F910F91FF90EF9008950C
:101C80002F923F924F925F926F927F928F929F928C
:101C9000AF92BF92CF92DF92EF92FF920F931F937A
:101CA000CF93DF93CDB7DEB76B970FB6F894DEBF57
:101CB0000FBECDBF9B8F8A8F1B014A01D22E198781
:101CC00008873701A982DC0159962D913C915A97DA
:101CD0002115310509F0FFC018968D919C91199737
:101CE000681779070CF0E7C11A968D919C911B97A4
:101CF000481759070CF0DFC1EC2DF0E0FB83EA83B5
:101D00009B0146E0C49E200D311D11243D872C8788
:101D1000121613060CF0CFC16A2D70E07B876A871C
:101D200083E0660F771F8A95E1F77F876E87CB0187
:101D3000880D991D181619060CF0BDC158968C9186
:101D4000811104C08FEA8D1508F4D394AA8DBB8D40
:101D5000ED91FC9111970284F385E02DCD01099559
:101D6000B5E0DB9EC0011124EC2DF0E0F98BE88B8F
:101D700091012B5F3F4F3B8B2A8B3D822C822101AF
:101D8000AC01421953095D8B4C8B7981672F70E050
:101D90007F8B6E8BC4010896998F888FEC89FD89A3
:101DA000E40DF51DE955FF4FD49054019F828E82BA
:101DB000D0FE16C0AA8DBB8DED91FC91B1E0CB1287
:101DC00009C02981213031F40484F585E02D28856E
:101DD000398519C00684F785E02DE884F9841DC093
:101DE000488559854615570519F1AA8DBB8DED918A
:101DF000FC91B1E0CB120DC02981213051F4048453
:101E0000F585E02D9301A501B2018A8D9B8D099581
:101E10000FC00684F785E02D73010A851B852A8192
:101E20003B814E815F816C817D818A8D9B8D09957F
:101E3000D6943FEFA31AB30A4E815F816E897F89E2
:101E4000460F571F5F834E83888D998DA816B9065C
:101E500009F0AECF9FEF491A590AAC81BD81E889DC
:101E6000F989AE0FBF1FBD83AC832A893B89421617
:101E7000530609F093CF488559854615570509F44F
:101E8000F8C0AA8DBB8DED91FC91B1E0CB1211C0D1
:101E90002981213071F4B1016B5F7F4F0088F18996
:101EA000E02D830128E030E0A4018A8D9B8D099507
:101EB000E0C06C857D854A815B81641B750B06845F
:101EC000F785E02D73010E851F859A01A4018A8D87
:101ED0009B8D0995CEC0F9013496E491DE1AF90183
:101EE000329685919491B7E0DB9E800D911D11246F
:101EF000F901259134913B8B2A8BFC01259134917A
:101F00005901FC0132965490319634913C873296B7
:101F100074903196149141E04C1518F0598152306B
:101F200068F0672D072C000C770B7D836C83812F65
:101F3000012E000C990B9B838A8304C01B821A829A
:101F40001D821C82AA8DBB8DED91FC91119702849C
:101F5000F385E02DCD010995412CD12C612CF9811F
:101F6000EF2FF0E0FF83EE832C2D30E03B872A87B4
:101F7000A401410F511D17FD5A955F8B4E8BB10186
:101F8000670D711D77FC7A95798F688F7C85671650
:101F900008F06FC0262D30E04A815B81420F531F4D
:101FA000AE81BF81A49FC001A59F900DB49F900DED
:101FB0001124F401E80FF91FF98BE88B842D712CA3
:101FC0004E895F89420F531F5D8B4C8B751408F04F
:101FD0004DC051E0580F5E87877041F4C5010196EE
:101FE000EA89FB89EA0DFB1DD4905C01D7FE3AC05B
:101FF00061E0C61216C07981713099F4AA8DBB8D4B
:10200000ED91FC9111970484F585E02D28853985A3
:102010004C895D89688D798D670D711DCD0109959C
:1020200021C08C819D81870D911DEA85FB858E9F46
:10203000B0018F9F700D9E9F700D1124620D731D56
:10204000AA8DBB8DED91FC9111970684F785E02D4B
:10205000E884F9840E811F812A853B854889598946
:10206000CD010995DD0C73948E85B0CF450C63943A
:102070008DCFAA8DBB8DED91FC9111970688F789C4
:10208000E02DCD016B960FB6F894DEBF0FBECDBF2D
:10209000DF91CF911F910F91FF90EF90DF90CF9044
:1020A000BF90AF909F908F907F906F905F904F9078
:1020B0003F902F9009946B960FB6F894DEBF0FBE39
:1020C000CDBFDF91CF911F910F91FF90EF90DF90E7
:1020D000CF90BF90AF909F908F907F906F905F90C8
:1020E0004F903F902F90089590E0FC01ED56FF4FE8
:1020F0002491FC01E954FA4F3491FC01EB52FA4F60
:10210000E491EE2309F43CC0222339F1233091F00D
:1021100038F42130A9F0223001F584B58F7D12C04A
:10212000273091F02830A1F02430B9F4809180005C
:102130008F7D03C0809180008F77809380000DC0D9
:1021400084B58F7784BD09C08091B0008F7703C0BC
:102150008091B0008F7D8093B000F0E0EE0FFF1F04
:10216000E757FF4FA591B4919FB7F894611104C050
:102170008C913095382302C0EC913E2B3C939FBF4D
:102180000895CF93DF9390E0FC01E954FA4F249136
:10219000FC01EB52FA4F8491882361F190E0880FA3
:1021A000991FFC01E158FF4FC591D491FC01E757FD
:1021B000FF4FA591B491611109C09FB7F894888130
:1021C000209582238883EC912E230BC0623061F42A
:1021D0009FB7F8948881322F309583238883EC91C0
:1021E0002E2B2C939FBF06C08FB7F894E8812E2B1F
:1021F00028838FBFDF91CF9108958E3008F08E50E5
:102200008770806480937C0080917A0080648093E2
:102210007A0080917A0086FDFCCF80917800209131
:10222000790090E0922B08958F929F92AF92BF9287
:10223000CF92DF92EF92FF926B017C010E945703D5
:102240004B015C01C114D104E104F104F1F00E94DE
:102250005703DC01CB0188199909AA09BB09883EFB
:102260009340A105B10570F321E0C21AD108E1083D
:10227000F10888EE880E83E0981EA11CB11CC114E1
:10228000D104E104F10419F7DDCFFF90EF90DF9066
:10229000CF90BF90AF909F908F900895CF92DF9294
:1022A000EF92FF920F931F93CF93DF932FB7F89482
:1022B00040910B0250910C0260910D0270910E0240
:1022C0002FBFE0911002A0912102E4FBFF27F0F95B
:1022D000E4FFB5C0C0901502D0901602E09017023E
:1022E000F0901802A11110C0C0912902D0912A02C9
:1022F000388120912B023223B1E009F4B0E0209123
:10230000110221702B2703C0E7FB222720F920931D
:1023100022028A019B010C191D092E093F0968013F
:102320007901B091220220910F02BB23D1F021FD4F
:1023300049C011E5C116D104E104F10408F442C01A
:10234000409315025093160260931702709318027F
:10235000297E2261206820930F02209111022062C1
:102360002CC021FF2FC031E5C316D104E104F104D4
:1023700048F122FF0BC1CDEBCC16C2E0DC06E10434
:10238000F10428F020910F02206420930F02209185
:102390000F02409315025093160260931702709338
:1023A00018022D7F2E7F20930F022091110225FF0E
:1023B000F4C024FDF2C02061277F20931102C12CBC
:1023C000D12C76013091110220910F0234FF15C0FB
:1023D0000DE2C01601E0D006E104F10470F022FD28
:1023E00007C033FD02C0326001C034603093110277
:1023F000309111023F7E3093110221FF20C01DEB6E
:10240000C11612E0D106E104F104C8F022FD17C0A4
:10241000BB2349F0216020930F02209111022F7DF0
:10242000209311020CC02D7F2E7F20930F0240932A
:102430001502509316026093170270931802AA2394
:1024400059F0E6FB882780F990E0880F991FE5FB9B
:10245000992790F9892B18C0A0912302B0912402EA
:102460009C9180912502982321E009F420E0A0911D
:102470002602B09127028C9190912802982311F0A6
:1024800082E001C080E0822B20911302281709F41A
:1024900090C0109214029091110296FF1EC08330DA
:1024A00069F49F7B90931102213021F02230C1F416
:1024B00091E001C092E09093140212C0E3FD71C05C
:1024C000811113C09F7B90931102213019F02230AB
:1024D00009F069C02093140266C0882309F463C020
:1024E000E3FD03C0833009F45EC090911402992388
:1024F000E9F120910F02286020930F020091190248
:1025000010911A0220911B0230911C026A017B017A
:10251000C01AD10AE20AF30A97018601C09012029A
:10252000D12CE12CF12C0C151D052E053F0568F46E
:10253000913021F420911002226005C0923029F4DC
:1025400020911002216020931002409319025093B1
:102550001A0260931B0270931C02FF2339F0209132
:102560002202222319F09E5F90931402809313029B
:1025700080910F02846080930F0240931502509364
:102580001602609317027093180213C020FDF3CE59
:102590002B7F206220930F02EECE20911102286043
:1025A0000CCF8111E3CF90911102906490931102AE
:1025B0009CCFDF91CF911F910F91FF90EF90DF9013
:1025C000CF9008952091560230915702C901079685
:1025D00097FD079623E0959587952A95E1F7209139
:1025E000540230915502829FA001839F500D929F0B
:1025F000500D112460E070E080916D0290916E02A8
:102600000C945A1C30910A02313208F04BC0809170
:10261000E6018111FCCF9091090222E02093E601AE
:1026200021E02093E5012FEF2093E4011092E301D4
:102630003093E201E9EEF1E0A2ECB1E020E03217E4
:1026400021F041914D932F5FFACF1092C10120915B
:10265000C101990F922B9093C1019091C0019130CB
:1026600061F41092C0019091C1019093BB009091D0
:10267000BC0093FDF8CF95EC01C095EE9093BC00A3
:102680009091E6019230E1F39091E4019F3F79F05F
:102690008091E401803241F08091E401803331F097
:1026A00084E005C081E003C082E001C083E01092B5
:1026B000E80110920A021092E7010895789484B517
:1026C000826084BD84B5816084BD85B5826085BD2E
:1026D00085B5816085BD80916E00816080936E00BC
:1026E00010928100809181008260809381008091AE
:1026F000810081608093810080918000816080935F
:1027000080008091B10084608093B1008091B0001E
:1027100081608093B00080917A00846080937A0019
:1027200080917A00826080937A0080917A00816043
:1027300080937A0080917A00806880937A0010926A
:10274000C10061E08AE00E94C1108EE292E00E9426
:10275000950980916D0290916E02892B11F520915F
:10276000560230915702C901079697FD0796A3E0DC
:1027700095958795AA95E1F72091540230915502DD
:10278000AC01429FC001439F900D529F900D1124B8
:102790000E94341B90936E0280936D02892B09F482
:1027A00009C10E94E21282E08093700280916B0264
:1027B00090916C02892B09F491C38CE380936F0292
:1027C00010924F0110924E011092E80110920A02ED
:1027D0001092E60181E08093E5011092C00161E072
:1027E00082E10E94741061E083E10E947410809184
:1027F000B9008E7F8093B9008091B9008D7F80935E
:10280000B90088E48093B80085E48093BC008CE133
:1028100095E090939601809395018DE195E09093DA
:102820009401809393018091720287FD1EC061E044
:102830000E94C11061E0809172020E94741061E0F8
:1028400070E080E090E00E94141160E080917202DC
:102850000E9474106AE070E080E090E00E94141121
:1028600061E0809172020E94741080916B029091DD
:102870006C02892B09F446C320917F0230918002BB
:10288000409181025091820260E074E284EF90E016
:102890000E947B19DA01C9014097A109B109B695D7
:1028A000A795979587958093B80064E086E790E0B8
:1028B0000E940D0C60915602615080E592E00E94EA
:1028C000110B64E082E790E00E940D0C8091700291
:1028D000813009F422C364E180E592E00E94110B8B
:1028E00064E08EE690E00E940D0C8FE880938702F2
:1028F00080915402909155028038910509F011C3DE
:1029000080915602909157028034910509F01BC3C3
:1029100080917002813009F402C38FEC80938702AA
:10292000C2E16AED80E592E00E94110B6C2F80E518
:1029300092E00E94110B61E880E592E00E94110B89
:102940006091870280E592E00E94110B69ED80E5BD
:1029500092E00E94110B80917002813009F4F5C25F
:1029600061EF80E592E00E94110B66E088E690E05E
:102970000E940D0C80916B0290916C02892B09F4DE
:10298000E6C22091830230918402409185025091E9
:10299000860260E074E284EF90E00E947B19DA0125
:1029A000C9014097A109B109B695A7959795879553
:1029B0008093B80081E090E090936302809362027C
:1029C000909361028093600260E082E00E94C110F7
:1029D00060E083E00E94C11080917A00846080935F
:1029E0007A0080917A008D7F80937A0080917A00BE
:1029F0008E7F80937A00812C74E2972E74EFA72E3D
:102A0000B12C0E944E118091100282FD0E944E1145
:102A100080911402823059F410921402809199012D
:102A200090919A01019690939A01809399018091D7
:102A3000100282FD0E944E1180911402813059F4DF
:102A4000109214028091990190919A0101979093AC
:102A50009A01809399018091990190919A0104972C
:102A600039F410929A011092990181E090E002C02D
:102A700080E090E02091990130919A012C3F3F4FE6
:102A800039F410929A01109299012FEF3FEF29C06B
:102A9000892B29F58EE292E00E9417098FB7F894EE
:102AA00040900B0250900C0260900D0270900E024C
:102AB0008FBF8EE292E00E944A05C82FC090380274
:102AC000D09039022090300230903102682F8AE095
:102AD0000E94741080914F02C8133CC048C021E08E
:102AE00030E08091300290913102820F931F97FD68
:102AF00007C08115A4E09A072CF08FEF93E002C085
:102B000080E090E09093310280933002682F9093A0
:102B10002D0280932C0280E090E00E946D1960915C
:102B20002D0281E090E00E946D198CE292E00E94FB
:102B3000DF0C2B013C01C2E0D0E0642DCE010E94ED
:102B40006D19452C562C672C77242196C630D1055B
:102B5000A1F7A0CFCC2349F08091970190919801E3
:102B600001969093980180939701C0934F024091F2
:102B70004A02411121C080914B0290914C022816CB
:102B80003906C9F480914D0290914E02C816D906BB
:102B900091F480914F0241E0C8130EC0209144028D
:102BA000309145028091970190919801281739073B
:102BB00019F440E001C041E040934A02442309F483
:102BC00085C18091460290914702A0914802B09140
:102BD0004902A3019201281B390B4A0B5B0BDA0156
:102BE000C901853F9140A105B10508F46FC10E945C
:102BF000E21241E0409364024093650284E090E079
:102C000090935D0280935C02A1E0B0E0B0935F021C
:102C1000A0935E0280919701909198010E94AF0C61
:102C200082E080936402809365022EE430E030936A
:102C30005D0220935C0241E050E050935F024093BC
:102C40005E02C1010E94AF0C85E080936402809314
:102C5000650286E090E090935D0280935C02A5E1BE
:102C6000B0E0B0935F02A0935E02C6010E94AF0C79
:102C7000CC2399F000915A0210915B0220915802E6
:102C80003091590252E0E52EF12C40E050E060E036
:102C900070E080E592E00E94620680916B02909164
:102CA0006C02892BC1F020917F023091800240910B
:102CB000810250918202C501B4010E947B19DA01A0
:102CC000C9014097A109B109B695A7959795879530
:102CD0008093B8000AC0E0917902F0917A02908165
:102CE00080917E0280958923808365E08AE790E069
:102CF0000E940D0C60915402615080E592E00E94A8
:102D0000110B2091560230915702C901079697FD89
:102D1000079633E0959587953A95E1F7209154020F
:102D200030915502829F7001839FF00C929FF00CAE
:102D30001124C0916D02D0916E0280916B0290912E
:102D40006C02EC0EFD1E009709F448C020916F0242
:102D5000B1E0B093E701209309021092E8011092CC
:102D60000A02DC01ED91FC910190F081E02D60E41C
:102D7000099511E080916B0290916C02EC16FD06B2
:102D800051F11032D0F00E94021380916F02B1E035
:102D9000B093E701809309021092E80110920A02B1
:102DA00080916B0290916C02DC01ED91FC9101909D
:102DB000F081E02D60E4099511E080916B02909123
:102DC0006C026991DC01ED91FC910190F081E02DA4
:102DD00009951F5FCFCF0E94021337C0E0917702A1
:102DE000F0917802908180917D02892B8083CE15AD
:102DF000DF0559F1399188E090E020E8E091730215
:102E0000F091740240917B02532F522319F05081AC
:102E1000452B03C05081409545234083E0917502C6
:102E2000F0917602508140917C02452B4083E091E5
:102E30007502F0917602408150917C0250954523B5
:102E4000408326950197D1F6D2CF80916B02909165
:102E50006C02892BC1F02091830230918402409151
:102E6000850250918602C501B4010E947B19DA01E6
:102E7000C9014097A109B109B695A795979587957E
:102E80008093B80009C0E0917902F0917A029081B4
:102E900080917E02892B8083809197019091980187
:102EA000909345028093440230924C0220924B0250
:102EB000D0924E02C0924D0210924A0240924602B7
:102EC00050924702609248027092490220E030E03E
:102ED000232B09F496CD0E94000093CDE091790256
:102EE000F0917A02908180917E02892B8083E0911B
:102EF0007502F0917602908180917C028095892301
:102F0000808391CCE0917902F0917A029081809156
:102F10007E02809589238083C8CC60E1DDCC8FE977
:102F2000FDCC8036910579F480915602909157023C
:102F3000409749F480917002813011F08FEA01C00E
:102F400080E180938702C2E0ECCC62E20ACDE0919E
:102F50007902F0917A02908180917E02892B8083A0
:102F600029CD0C94651986E291E0909351028093EB
:102F7000500280916D0290916E02009711F00C94B6
:102F8000CC1B0895CF92DF92EF92FF920F931F9385
:102F9000CF93DF9300D0CDB7DEB710928B021092A3
:102FA0008A0288EE93E0A0E0B0E080938C029093D8
:102FB0008D02A0938E02B0938F028AE091E09093ED
:102FC000890280938802109253021092520220E8E4
:102FD00030E0309355022093540280E490E09093C7
:102FE00057028093560230935902209358029093CF
:102FF0005B0280935A021092660210925D02109258
:103000005C0210925F0210925E0281E08093650282
:10301000809364022FEF3FEF3093630220936202AC
:1030200030936102209360028093670210926802DD
:1030300010926A021092690286E291E09093510226
:103040008093500288E892E090936C0280936B0228
:1030500010926E0210926D028FEF8093720280E8E0
:103060009AE1A6E0B0E080937F0290938002A09363
:103070008102B093820280EA96E8A1E0B0E08093FA
:10308000830290938402A0938502B093860282E328
:1030900080931202109213021092140210921502E1
:1030A0001092160210921702109218021092190232
:1030B00010921A0210921B0210921C0210921F0210
:1030C00010922002109221021092220283E080933B
:1030D0001D0282E080931E02809110028F7E877F06
:1030E00080931002E8EDF5E0E491F0E0EE0FFF1FB1
:1030F000E553FA4F85919491909324028093230293
:10310000EAEBF5E0E491E0932502E7EDF5E0E491E8
:10311000F0E0EE0FFF1FE553FA4F859194919093E5
:10312000270280932602E9EBF5E0E491E093280280
:1031300062E083E00E94C11062E080911E020E9462
:10314000C1108091100284FF05C062E080911F02CF
:103150000E94C11080911102816080931102E09160
:103160002302F0912402908180912502982321E08E
:1031700009F420E0E0912602F091270280819091ED
:103180002802982311F480E001C082E0822B809312
:10319000130280E090E00E94B117898381E090E003
:1031A0000E94B1178A8382E090E00E94B117182F25
:1031B00083E090E00E94B117082F84E090E00E9425
:1031C000B117C82ED12CE12CF12C7601DD24CC24B2
:1031D000D02AC12A85E090E00E94B117F82ACE01DA
:1031E00001960E94DF0CC616D706E806F90619F408
:1031F00089819A8102C080EC93E090932D028093A4
:103200002C02109232021092330210923402109269
:1032100035028FE090E0909337028093360210924F
:1032200039021092380210923A0210923B02109228
:103230003C0210923D028CEE91E5A8E7BFE380933B
:103240003E0290933F02A0934002B093410288EE69
:1032500093E090934302809342028CE191E090933B
:103260002F0280932E028FEF9FEF90934502809361
:1032700044021092460210924702109248021092A5
:10328000490221E020934A0290934C0280934B0222
:1032900090934E0280934D0280912C0290912D02CA
:1032A00090933102809330028EE292E00E944A05B0
:1032B00080934F020F900F90DF91CF911F910F914C
:1032C000FF90EF90DF90CF900895F999FECF92BDD7
:1032D00081BDF89A992780B50895262FF999FECFD8
:1032E0001FBA92BD81BD20BD0FB6F894FA9AF99A23
:1032F0000FBE01960895A1E21A2EAA1BBB1BFD0169
:103300000DC0AA1FBB1FEE1FFF1FA217B307E407C4
:10331000F50720F0A21BB30BE40BF50B661F771F1C
:10332000881F991F1A9469F76095709580959095FC
:103330009B01AC01BD01CF010895EE0FFF1F059069
:10334000F491E02D09945058BB27AA270E94BB197D
:103350000C948D1A0E947F1A38F00E94861A20F071
:1033600039F49F3F19F426F40C947C1A0EF4E0957E
:10337000E7FB0C94761AE92F0E949E1A58F3BA17AD
:10338000620773078407950720F079F4A6F50C947B
:10339000C01A0EF4E0950B2EBA2FA02D0B01B90127
:1033A00090010C01CA01A0011124FF27591B99F0BB
:1033B000593F50F4503E68F11A16F040A22F232FC7
:1033C000342F4427585FF3CF469537952795A79517
:1033D000F0405395C9F77EF41F16BA0B620B730BBE
:1033E000840BBAF09150A1F0FF0FBB1F661F771F2F
:1033F000881FC2F70EC0BA0F621F731F841F48F4E4
:10340000879577956795B795F7959E3F08F0B0CF6C
:103410009395880F08F09927EE0F97958795089553
:103420000E94521A08F481E00895E89409C097FBBD
:103430003EF490958095709561957F4F8F4F9F4F8B
:103440009923A9F0F92F96E9BB279395F6958795CF
:1034500077956795B795F111F8CFFAF4BB0F11F492
:1034600060FF1BC06F5F7F4F8F4F9F4F16C0882339
:1034700011F096E911C0772321F09EE8872F762F6F
:1034800005C0662371F096E8862F70E060E02AF0B0
:103490009A95660F771F881FDAF7880F969587959C
:1034A00097F90895990F0008550FAA0BE0E8FEEF71
:1034B00016161706E807F907C0F012161306E407F8
:1034C000F50798F0621B730B840B950B39F40A26F1
:1034D00061F0232B242B252B21F408950A2609F4CF
:1034E000A140A6958FEF811D811D089597F99F67D3
:1034F00080E870E060E008959FEF80EC089500247C
:103500000A941616170618060906089500240A9448
:1035100012161306140605060895092E0394000CCE
:1035200011F4882352F0BB0F40F4BF2B11F460FF5D
:1035300004C06F5F7F4F8F4F9F4F089557FD905886
:10354000440F551F59F05F3F71F04795880F97FB67
:10355000991F61F09F3F79F0879508951216130621
:103560001406551FF2CF4695F1DF08C01616170650
:103570001806991FF1CF8695710561050894089585
:10358000E894BB2766277727CB0197F908950E9417
:10359000DA1A0C948D1A0E947F1A38F00E94861A4B
:1035A00020F0952311F00C94761A0C947C1A1124B7
:1035B0000C94C11A0E949E1A70F3959FC1F3950F47
:1035C00050E0551F629FF001729FBB27F00DB11DA7
:1035D000639FAA27F00DB11DAA1F649F6627B00D37
:1035E000A11D661F829F2227B00DA11D621F739F20
:1035F000B00DA11D621F839FA00D611D221F749F2E
:103600003327A00D611D231F849F600D211D822F74
:10361000762F6A2F11249F5750409AF0F1F088239B
:103620004AF0EE0FFF1FBB1F661F771F881F9150C8
:103630005040A9F79E3F510580F00C94761A0C94E7
:10364000C11A5F3FE4F3983ED4F38695779567956A
:10365000B795F795E7959F5FC1F7FE2B880F911DF2
:103660009695879597F908950F931F93CF93DF93BE
:103670008230910510F482E090E0E0919602F091A2
:10368000970220E030E0A0E0B0E0309719F14081EF
:1036900051810281138148175907C8F08417950793
:1036A00069F4109731F012960C93129713961C93AD
:1036B00027C0009396021093970222C0211531056E
:1036C00019F04217530718F49A01BD01EF01DF0109
:1036D000F801DBCF21153105F9F0281B390B243017
:1036E000310580F48A819B816115710521F0FB0110
:1036F0009383828304C09093970280939602FE0185
:10370000329644C0FE01E20FF31F81939193225041
:103710003109398328833AC020919402309195026F
:10372000232B41F420910201309103013093950243
:10373000209394022091000130910101211531055F
:1037400041F42DB73EB74091040150910501241B6F
:10375000350BE0919402F0919502E217F307A0F483
:103760002E1B3F0B2817390778F0AC014E5F5F4FD7
:103770002417350748F04E0F5F1F50939502409372
:1037800094028193919302C0E0E0F0E0CF01DF91D9
:10379000CF911F910F910895CF93DF93009709F474
:1037A00081C0FC01329713821282A0919602B091DF
:1037B0009702109781F420813181820F931F20910D
:1037C0009402309195022817390751F5F09395022C
:1037D000E093940267C0ED0120E030E0CE17DF07F0
:1037E00040F44A815B819E0141155105F1F0EA01E7
:1037F000F5CFD383C28340815181840F951FC817B1
:10380000D90759F488819981840F951F0296918375
:1038100080838A819B81938382832115310529F4DA
:10382000F0939702E09396023DC0E901FB83EA839F
:1038300049915991C40FD51FEC17FD0761F48081A0
:103840009181840F951F0296E90199838883828173
:1038500093819B838A83E0E0F0E012968D919C91A6
:103860001397009719F0FD01DC01F7CF8D919C9122
:1038700011979D012E5F3F4F820F931F209194025D
:10388000309195022817390769F4309729F410927E
:1038900097021092960202C013821282B093950290
:1038A000A0939402DF91CF91089581E090E0F89485
:1038B0000C94611CDC0101C06D9341505040E0F755
:1038C000089512E0C6EFD2E004C0FE010E949D19E7
:0C38D0002196C73FD107C9F7F894FFCF3D
:1038DC0000009802200000000000E808BB08B808AF
:1038EC001E0542052E051F0500000000950917094D
:1038FC004A0500000000AA092103B808B708FA0716
:10390C001E05410719073507290748071E056405D9
:0E391C006A0B820AC60A62064506D8057905BE
:00000001FF
